:1000000009C021C020C01FC01EC01DC01CC01BC015
:100010001AC019C011241FBECFE9CDBF10E0A0E661
:10002000B0E0E6E0F2E002C005900D92AA36B1071A
:10003000D9F710E0AAE6B0E001C01D92AD36B107D5
:10004000E1F7C6D0DEC0DCCF80916B00882319F0C9
:10005000813071F407C08FB58F708FBD8FB5806808
:100060008FBD08958FB58F708FBD8FB580628FBDA6
:10007000089580916C00E0E6F0E0E80FF11D8081CA
:1000800086BF89BD089590916A0081E0982790937A
:100090006A00992319F0913031F404C08FB58F7044
:1000A0008FBD0895D1DF08951F9380E090E093D035
:1000B000182F80936C0081E090E08DD080936B00CE
:1000C000E0E6F0E0E10FF11D808186BF89BD93E09D
:1000D00097BB8CE388BB9FBD93BF1F910895809110
:1000E0006C00815080936C008F3F11F410926C0073
:1000F00060916C00E62FF0E0E05AFF4F808186BFF0
:1001000089BD80E090E06FD0E199FECF08958091A5
:100110006C008F5F80936C008A3019F489E08093C3
:100120006C0060916C00E62FF0E0E05AFF4F808198
:1001300086BF89BD80E090E056D0E199FECF08955A
:1001400080916B0091E0892780936B007DDF81E0D7
:1001500090E060916B0047D0E199FECF0895B3998C
:100160000BC080EA9CE80197F1F78DDFB39BFECFCF
:1001700080EA9CE80197F1F780916A00882339F1C1
:10018000B4990BC080EA9CE80197F1F7D9DFB49BE2
:10019000FECF80EA9CE80197F1F7B2990BC080EAA4
:1001A0009CE80197F1F7B3DFB29BFECF80EA9CE8B1
:1001B0000197F1F7B5990BC080EA9CE80197F1F738
:1001C0008EDFB59BFECF80EA9CE80197F1F708959A
:1001D0006BDFC5DFFECFE199FECF1FBA8EBBE09A81
:1001E00099278DB30895262FE199FECF1CBA1FBA27
:1001F0008EBB2DBB0FB6F894E29AE19A0FBE019622
:060200000895F894FFCF01
:0A02060019324B647D96AFC8E1FF8A
:00000001FF
