:020000020000FC
:1000000009C018951895189573C0189518951895E6
:10001000189518950FE90DBF30E0E8947894002703
:100020000EBBE09A4DB301E00EBBE09A5DB303E076
:1000300007BB0CE308BB03E003BF4FBD03E00FBDEC
:10004000B39B09D03130E1F7B49B15D0B29B29D0D6
:10005000B59B33D0F5CF3DD03395323009F43327FB
:10006000313019F44FBD3BD002C003E00FBDB39B4C
:10007000FECF2FD008952DD04395443809F443E2A4
:10008000443209F443E84FBD00270EBB4DBBE29A52
:10009000E19AE39AFEF7E398E894B49BFECF19D077
:1000A000089517D053955A3011F459E002C017D073
:1000B00021D0B29BFECF0DD008950BD05A955F3F53
:1000C00011F4552702C00BD015D0B59BFECF01D03F
:1000D000089510E62AEE11502040E8F70895E8E070
:1000E000F1E0E50F0027F01F049106BF09BD089558
:1000F0006894189501E00EBB5DBBE29AE19AE39A21
:10010000FEF7E398E894089519324B647D96AFC8E2
:02011000E1FA12
:00000001FF
